{
   "safe": "0xfF501B324DC6d78dC9F983f140B9211c3EdB4dc7",
   "tx": {
      "safe": "0xfF501B324DC6d78dC9F983f140B9211c3EdB4dc7",
      "to": "0xFab46E002BbF0b4509813474841E0716E6730136",
      "value": "0",
      "data": "0x095ea7b300000000000000000000000078334ed20da456e89cd7e5a90de429d705f5bc88ffffffffffffffffffffffffffffffffffffffffffffffffffffffffffffffff",
      "operation": 0,
      "gasToken": "0x0000000000000000000000000000000000000000",
      "safeTxGas": 63610,
      "baseGas": 0,
      "gasPrice": "0",
      "refundReceiver": "0x0000000000000000000000000000000000000000",
      "nonce": 26,
      "executionDate": null,
      "submissionDate": "2021-04-30T10:24:49.073875Z",
      "modified": "2021-04-30T10:24:49.073875Z",
      "blockNumber": null,
      "transactionHash": null,
      "safeTxHash": "0xf092dbe10b9d2f6ca09a0641215ca2f95ab373fc9252273e411f699e658922ad",
      "executor": null,
      "isExecuted": false,
      "isSuccessful": null,
      "ethGasPrice": null,
      "gasUsed": null,
      "fee": null,
      "origin": "{\"url\":\"https://baguette-invoicing.request.network\",\"name\":\"Request Invoicing\"}",
      "dataDecoded": {
         "method": "approve",
         "parameters": [
            {
               "name": "spender",
               "type": "address",
               "value": "0x78334eD20DA456E89cd7E5A90de429d705f5BC88"
            },
            {
               "name": "value",
               "type": "uint256",
               "value": "115792089237316195423570985008687907853269984665640564039457584007913129639935"
            }
         ]
      },
      "confirmationsRequired": null,
      "confirmations": [
         {
            "owner": "0x8712128BEA09C9687Df05A5D692F3750F8086C81",
            "submissionDate": "2021-04-30T10:24:49.084393Z",
            "transactionHash": null,
            "signature": "0x2ca8392d9dd47234b509fde35118edcf2693b25d78b8b55be2a911722cd1b5d83626e6d610bb1f70b7b3935722194f240030b5fa09b6add1d41f59ef64e23bf41b",
            "signatureType": "EOA"
         }
      ],
      "signatures": null
   }
}