{
   "safe": "0xfF501B324DC6d78dC9F983f140B9211c3EdB4dc7",
   "tx": {
      "safe": "0xfF501B324DC6d78dC9F983f140B9211c3EdB4dc7",
      "to": "0x57f1887a8BF19b14fC0dF6Fd9B2acc9Af147eA85",
      "value": "0",
      "data": "0x23b872dd000000000000000000000000ff501b324dc6d78dc9f983f140b9211c3edb4dc70000000000000000000000001ca57cbf18ab08119acb4ca2517650ffc3ba6d40ce3f8bfd04bb347a13abbf6faca8dc5e4a281345a316019206742b60b6f1b053",
      "operation": 0,
      "gasToken": "0x0000000000000000000000000000000000000000",
      "safeTxGas": 36772,
      "baseGas": 0,
      "gasPrice": "0",
      "refundReceiver": "0x0000000000000000000000000000000000000000",
      "nonce": 17,
      "executionDate": null,
      "submissionDate": "2020-12-08T22:24:52.307981Z",
      "modified": "2020-12-08T22:24:52.307981Z",
      "blockNumber": null,
      "transactionHash": null,
      "safeTxHash": "0x9a55bc7883725a3346db6b6c8817a8409c3da56cd99ed87475051d465cdf0fe6",
      "executor": null,
      "isExecuted": false,
      "isSuccessful": null,
      "ethGasPrice": null,
      "gasUsed": null,
      "fee": null,
      "origin": null,
      "dataDecoded": {
         "method": "transferFrom",
         "parameters": [
            {
               "name": "from",
               "type": "address",
               "value": "0xfF501B324DC6d78dC9F983f140B9211c3EdB4dc7"
            },
            {
               "name": "to",
               "type": "address",
               "value": "0x1ca57CBf18Ab08119ACb4CA2517650fFc3BA6D40"
            },
            {
               "name": "value",
               "type": "uint256",
               "value": "93288724337340885726942883352789513739931149355867373088241393067029827792979"
            }
         ]
      },
      "confirmationsRequired": null,
      "confirmations": [
         {
            "owner": "0x8712128BEA09C9687Df05A5D692F3750F8086C81",
            "submissionDate": "2020-12-08T22:24:52.358546Z",
            "transactionHash": null,
            "signature": "0x7c6f59c4b4ff23709e95fec3dbc219b000cd4e31cac2c6ca29751edcdf024fa3503f2e0e7059f2cf6357e3cd40dd3c97abf50b9283c5d8421dcc752bf3d34ee21c",
            "signatureType": "EOA"
         }
      ],
      "signatures": null
   }
}