{
   "safe": "0xfF501B324DC6d78dC9F983f140B9211c3EdB4dc7",
   "tx": {
      "safe": "0xfF501B324DC6d78dC9F983f140B9211c3EdB4dc7",
      "to": "0x36049D479A97CdE1fC6E2a5D2caE30B666Ebf92B",
      "value": "2000000000000000000",
      "data": "0x13a76c4c00000000000000000000000000000000000000000000000000000000000000200000000000000000000000000000000000000000000000000000000000000120000000000000000000000000037fc8e71445910e1e0bbb2a0896d5e9a7485318000000000000000000000000eeeeeeeeeeeeeeeeeeeeeeeeeeeeeeeeeeeeeeee000000000000000000000000ff501b324dc6d78dc9f983f140b9211c3edb4dc700000000000000000000000093ba99afbc24f4b102f8baead5a318bd350028bf00000000000000000000000000000000000000000000000000000000000000c04200696e652e66696e616e63652020d83ddc093142074d253946ea39da44376500000000000000000000000000000000000000000000000000000000000000400000000000000000000000006b175474e89094c44da98b954eedeac495271d0f00000000000000000000000000000000000000000000011bead5056f69e11ffe",
      "operation": 0,
      "gasToken": "0x0000000000000000000000000000000000000000",
      "safeTxGas": 75104,
      "baseGas": 0,
      "gasPrice": "0",
      "refundReceiver": "0x0000000000000000000000000000000000000000",
      "nonce": 16,
      "executionDate": null,
      "submissionDate": "2021-04-27T14:57:31.092211Z",
      "modified": "2021-04-27T14:57:31.092211Z",
      "blockNumber": null,
      "transactionHash": null,
      "safeTxHash": "0x6e995e6b252bf4bfa78212e6590e60ea07370fb382060be59b7c0fb0fbf12038",
      "executor": null,
      "isExecuted": false,
      "isSuccessful": null,
      "ethGasPrice": null,
      "gasUsed": null,
      "fee": null,
      "origin": "{\"url\":\"https://www.sorbet.finance/\",\"name\":\"Sorbet Finance\"}",
      "dataDecoded": {
         "method": "depositEth",
         "parameters": [
            {
               "name": "_data",
               "type": "bytes",
               "value": "0x000000000000000000000000037fc8e71445910e1e0bbb2a0896d5e9a7485318000000000000000000000000eeeeeeeeeeeeeeeeeeeeeeeeeeeeeeeeeeeeeeee000000000000000000000000ff501b324dc6d78dc9f983f140b9211c3edb4dc700000000000000000000000093ba99afbc24f4b102f8baead5a318bd350028bf00000000000000000000000000000000000000000000000000000000000000c04200696e652e66696e616e63652020d83ddc093142074d253946ea39da44376500000000000000000000000000000000000000000000000000000000000000400000000000000000000000006b175474e89094c44da98b954eedeac495271d0f00000000000000000000000000000000000000000000011bead5056f69e11ffe"
            }
         ]
      },
      "confirmationsRequired": null,
      "confirmations": [
         {
            "owner": "0x8712128BEA09C9687Df05A5D692F3750F8086C81",
            "submissionDate": "2021-04-27T14:57:31.103346Z",
            "transactionHash": null,
            "signature": "0x6394607cad80a2dccdb70fbc3cf4b401840ab7bc93f0f0284cf6fc945537ddcc7136ede49debb5231cac4e0a0d2da57675c8fe493531d9a21bec28d5e2e286261c",
            "signatureType": "EOA"
         }
      ],
      "signatures": null
   }
}