{
   "safe": "0xfF501B324DC6d78dC9F983f140B9211c3EdB4dc7",
   "tx": {
      "safe": "0xfF501B324DC6d78dC9F983f140B9211c3EdB4dc7",
      "to": "0x36049D479A97CdE1fC6E2a5D2caE30B666Ebf92B",
      "value": "2000000000000000000",
      "data": "0x13a76c4c00000000000000000000000000000000000000000000000000000000000000200000000000000000000000000000000000000000000000000000000000000120000000000000000000000000037fc8e71445910e1e0bbb2a0896d5e9a7485318000000000000000000000000eeeeeeeeeeeeeeeeeeeeeeeeeeeeeeeeeeeeeeee000000000000000000000000ff501b324dc6d78dc9f983f140b9211c3edb4dc70000000000000000000000009176a0518a607469188a0d6e88f9d30100ef6ca900000000000000000000000000000000000000000000000000000000000000c04200696e652e66696e616e63652020d83ddc09dd77600d89f3bd1a5cb35522a800000000000000000000000000000000000000000000000000000000000000400000000000000000000000006b175474e89094c44da98b954eedeac495271d0f00000000000000000000000000000000000000000000011bead5056f69e11ffe",
      "operation": 0,
      "gasToken": "0x0000000000000000000000000000000000000000",
      "safeTxGas": 75104,
      "baseGas": 0,
      "gasPrice": "0",
      "refundReceiver": "0x0000000000000000000000000000000000000000",
      "nonce": 16,
      "executionDate": null,
      "submissionDate": "2021-04-27T14:58:30.358008Z",
      "modified": "2021-04-27T14:58:30.358008Z",
      "blockNumber": null,
      "transactionHash": null,
      "safeTxHash": "0xef8b16a70515fc390f960e73b5b5ac38959021f1b77a551002b0be3e7989e8bf",
      "executor": null,
      "isExecuted": false,
      "isSuccessful": null,
      "ethGasPrice": null,
      "gasUsed": null,
      "fee": null,
      "origin": "{\"url\":\"https://www.sorbet.finance/\",\"name\":\"Sorbet Finance\"}",
      "dataDecoded": {
         "method": "depositEth",
         "parameters": [
            {
               "name": "_data",
               "type": "bytes",
               "value": "0x000000000000000000000000037fc8e71445910e1e0bbb2a0896d5e9a7485318000000000000000000000000eeeeeeeeeeeeeeeeeeeeeeeeeeeeeeeeeeeeeeee000000000000000000000000ff501b324dc6d78dc9f983f140b9211c3edb4dc70000000000000000000000009176a0518a607469188a0d6e88f9d30100ef6ca900000000000000000000000000000000000000000000000000000000000000c04200696e652e66696e616e63652020d83ddc09dd77600d89f3bd1a5cb35522a800000000000000000000000000000000000000000000000000000000000000400000000000000000000000006b175474e89094c44da98b954eedeac495271d0f00000000000000000000000000000000000000000000011bead5056f69e11ffe"
            }
         ]
      },
      "confirmationsRequired": null,
      "confirmations": [
         {
            "owner": "0x8712128BEA09C9687Df05A5D692F3750F8086C81",
            "submissionDate": "2021-04-27T14:58:30.368697Z",
            "transactionHash": null,
            "signature": "0xea8b12c936d4040dd6b531c132d9b73276d7bebd268864cc2a72765d3a4bb057260b0b39f997e91b94d4625c5516878d5aea0e9431472a85e67442d3ac0003c71b",
            "signatureType": "EOA"
         }
      ],
      "signatures": null
   }
}