{
   "safe": "0xfF501B324DC6d78dC9F983f140B9211c3EdB4dc7",
   "tx": {
      "safe": "0xfF501B324DC6d78dC9F983f140B9211c3EdB4dc7",
      "to": "0xA0b86991c6218b36c1d19D4a2e9Eb0cE3606eB48",
      "value": "0",
      "data": "0x095ea7b3000000000000000000000000bebc44782c7db0a1a60cb6fe97d0b483032ff1c7ffffffffffffffffffffffffffffffffffffffffffffffffffffffffffffffff",
      "operation": 0,
      "gasToken": "0x0000000000000000000000000000000000000000",
      "safeTxGas": 77430,
      "baseGas": 0,
      "gasPrice": "0",
      "refundReceiver": "0x0000000000000000000000000000000000000000",
      "nonce": 27,
      "executionDate": null,
      "submissionDate": "2021-06-24T13:20:50.572409Z",
      "modified": "2021-06-24T13:20:50.581894Z",
      "blockNumber": null,
      "transactionHash": null,
      "safeTxHash": "0x4e9a7754230a6da7ca257bce1c543329aab3f733632522952ab7c7a59d3de41f",
      "executor": null,
      "isExecuted": false,
      "isSuccessful": null,
      "ethGasPrice": null,
      "gasUsed": null,
      "fee": null,
      "origin": "{\"url\":\"https://curve.fi\",\"name\":\"Curve\"}",
      "dataDecoded": {
         "method": "approve",
         "parameters": [
            {
               "name": "spender",
               "type": "address",
               "value": "0xbEbc44782C7dB0a1A60Cb6fe97d0b483032FF1C7"
            },
            {
               "name": "value",
               "type": "uint256",
               "value": "115792089237316195423570985008687907853269984665640564039457584007913129639935"
            }
         ]
      },
      "confirmationsRequired": null,
      "confirmations": [
         {
            "owner": "0x9F87C1aCaF3Afc6a5557c58284D9F8609470b571",
            "submissionDate": "2021-06-24T13:20:50.581894Z",
            "transactionHash": null,
            "signature": "0x3d7c49762367c8ae9a4bafbd3430dffaf1679636697aba17996e12160cfd55014e6d6523d607d3337ff883e8b1c66d0f41951dfe1f23098fcda5c3a1f7bfb2d41c",
            "signatureType": "EOA"
         }
      ],
      "signatures": null
   }
}