{
   "safe": "0xfF501B324DC6d78dC9F983f140B9211c3EdB4dc7",
   "tx": {
      "safe": "0xfF501B324DC6d78dC9F983f140B9211c3EdB4dc7",
      "to": "0x8D29bE29923b68abfDD21e541b9374737B49cdAD",
      "value": "0",
      "data": "0x8d80ff0a0000000000000000000000000000000000000000000000000000000000000020000000000000000000000000000000000000000000000000000000000000017200cfbfac74c26f8647cbdb8c5caf80bb5b32e4313400000000000000000000000000000000000000000000000000000000000000000000000000000000000000000000000000000000000000000000000000000024e71bdf410000000000000000000000008712128bea09c9687df05a5d692f3750f8086c8100cfbfac74c26f8647cbdb8c5caf80bb5b32e43134000000000000000000000000000000000000000000000000000000000000000000000000000000000000000000000000000000000000000000000000000000a4beaeb3880000000000000000000000008712128bea09c9687df05a5d692f3750f8086c810000000000000000000000006810e776880c02933d47db1b9fc05908e5386b960000000000000000000000000000000000000000000000008ac7230489e80000000000000000000000000000000000000000000000000000000000000000a8c0000000000000000000000000000000000000000000000000000000000198cca30000000000000000000000000000",
      "operation": 1,
      "gasToken": "0x0000000000000000000000000000000000000000",
      "safeTxGas": 134889,
      "baseGas": 0,
      "gasPrice": "0",
      "refundReceiver": "0x0000000000000000000000000000000000000000",
      "nonce": 18,
      "executionDate": null,
      "submissionDate": "2020-12-08T22:25:56.161392Z",
      "modified": "2020-12-08T22:25:56.161392Z",
      "blockNumber": null,
      "transactionHash": null,
      "safeTxHash": "0xdc19004c346f7b2037e920294d3251dfe8c6b4ae92367255e9d5d69d349aa54b",
      "executor": null,
      "isExecuted": false,
      "isSuccessful": null,
      "ethGasPrice": null,
      "gasUsed": null,
      "fee": null,
      "origin": null,
      "dataDecoded": {
         "method": "multiSend",
         "parameters": [
            {
               "name": "transactions",
               "type": "bytes",
               "value": "0x00cfbfac74c26f8647cbdb8c5caf80bb5b32e4313400000000000000000000000000000000000000000000000000000000000000000000000000000000000000000000000000000000000000000000000000000024e71bdf410000000000000000000000008712128bea09c9687df05a5d692f3750f8086c8100cfbfac74c26f8647cbdb8c5caf80bb5b32e43134000000000000000000000000000000000000000000000000000000000000000000000000000000000000000000000000000000000000000000000000000000a4beaeb3880000000000000000000000008712128bea09c9687df05a5d692f3750f8086c810000000000000000000000006810e776880c02933d47db1b9fc05908e5386b960000000000000000000000000000000000000000000000008ac7230489e80000000000000000000000000000000000000000000000000000000000000000a8c0000000000000000000000000000000000000000000000000000000000198cca3",
               "valueDecoded": [
                  {
                     "operation": 0,
                     "to": "0xCFbFaC74C26F8647cBDb8c5caf80BB5b32E43134",
                     "value": "0",
                     "data": "0xe71bdf410000000000000000000000008712128bea09c9687df05a5d692f3750f8086c81",
                     "dataDecoded": {
                        "method": "addDelegate",
                        "parameters": [
                           {
                              "name": "delegate",
                              "type": "address",
                              "value": "0x8712128BEA09C9687Df05A5D692F3750F8086C81"
                           }
                        ]
                     }
                  },
                  {
                     "operation": 0,
                     "to": "0xCFbFaC74C26F8647cBDb8c5caf80BB5b32E43134",
                     "value": "0",
                     "data": "0xbeaeb3880000000000000000000000008712128bea09c9687df05a5d692f3750f8086c810000000000000000000000006810e776880c02933d47db1b9fc05908e5386b960000000000000000000000000000000000000000000000008ac7230489e80000000000000000000000000000000000000000000000000000000000000000a8c0000000000000000000000000000000000000000000000000000000000198cca3",
                     "dataDecoded": {
                        "method": "setAllowance",
                        "parameters": [
                           {
                              "name": "delegate",
                              "type": "address",
                              "value": "0x8712128BEA09C9687Df05A5D692F3750F8086C81"
                           },
                           {
                              "name": "token",
                              "type": "address",
                              "value": "0x6810e776880C02933D47DB1b9fc05908e5386b96"
                           },
                           {
                              "name": "allowanceAmount",
                              "type": "uint96",
                              "value": "10000000000000000000"
                           },
                           {
                              "name": "resetTimeMin",
                              "type": "uint16",
                              "value": "43200"
                           },
                           {
                              "name": "resetBaseMin",
                              "type": "uint32",
                              "value": "26791075"
                           }
                        ]
                     }
                  }
               ]
            }
         ]
      },
      "confirmationsRequired": null,
      "confirmations": [
         {
            "owner": "0x8712128BEA09C9687Df05A5D692F3750F8086C81",
            "submissionDate": "2020-12-08T22:25:56.199587Z",
            "transactionHash": null,
            "signature": "0xfa93900218b55b083c09e0d26251c87a6eb3ab51b394d48cb523ab4c12b1aaf571257c484b06af3b2af74b608f8627b908cb88fe3c899bcb6c44cdf2ec8996411b",
            "signatureType": "EOA"
         }
      ],
      "signatures": null
   }
}