{
   "safe": "0xfF501B324DC6d78dC9F983f140B9211c3EdB4dc7",
   "tx": {
      "safe": "0xfF501B324DC6d78dC9F983f140B9211c3EdB4dc7",
      "to": "0x8D29bE29923b68abfDD21e541b9374737B49cdAD",
      "value": "0",
      "data": "0x8d80ff0a00000000000000000000000000000000000000000000000000000000000000200000000000000000000000000000000000000000000000000000000000000372006810e776880c02933d47db1b9fc05908e5386b9600000000000000000000000000000000000000000000000000000000000000000000000000000000000000000000000000000000000000000000000000000044095ea7b30000000000000000000000003e66b66fd1d0b02fda6c811da9e0547970db2f21000000000000000000000000000000000000000000000002b5e3af16b1880000003e66b66fd1d0b02fda6c811da9e0547970db2f2100000000000000000000000000000000000000000000000000000000000000000000000000000000000000000000000000000000000000000000000000000284e2b3974600000000000000000000000000000000000000000000000000000000000000a00000000000000000000000006810e776880c02933d47db1b9fc05908e5386b960000000000000000000000007fc66500c84a76ad7e9c93437bfc5ac33e2ddae9000000000000000000000000000000000000000000000002b5e3af16b1880000000000000000000000000000000000000000000000000000c2aea5080be57489000000000000000000000000000000000000000000000000000000000000000100000000000000000000000000000000000000000000000000000000000000200000000000000000000000000000000000000000000000000000000000000002000000000000000000000000e42237f32708bd5c04d69cc77e1e36c8f911a0160000000000000000000000006810e776880c02933d47db1b9fc05908e5386b96000000000000000000000000c02aaa39b223fe8d0a0e5c4f27ead9083c756cc2000000000000000000000000000000000000000000000002b5e3af16b18800000000000000000000000000000000000000000000000000000000000000000000ffffffffffffffffffffffffffffffffffffffffffffffffffffffffffffffff0000000000000000000000007c90a3cd7ec80dd2f633ed562480abbeed3be546000000000000000000000000c02aaa39b223fe8d0a0e5c4f27ead9083c756cc20000000000000000000000007fc66500c84a76ad7e9c93437bfc5ac33e2ddae90000000000000000000000000000000000000000000000003920d95bfbc38fea0000000000000000000000000000000000000000000000000000000000000000ffffffffffffffffffffffffffffffffffffffffffffffffffffffffffffffff0000000000000000000000000000",
      "operation": 1,
      "gasToken": "0x0000000000000000000000000000000000000000",
      "safeTxGas": 692373,
      "baseGas": 0,
      "gasPrice": "0",
      "refundReceiver": "0x0000000000000000000000000000000000000000",
      "nonce": 21,
      "executionDate": null,
      "submissionDate": "2021-02-08T16:25:37.059746Z",
      "modified": "2021-02-08T16:25:37.059746Z",
      "blockNumber": null,
      "transactionHash": null,
      "safeTxHash": "0x31edaeb391056da2662d30ec3d9bfc8a82e23d3d3b5e472a8a3056f98bbf9842",
      "executor": null,
      "isExecuted": false,
      "isSuccessful": null,
      "ethGasPrice": null,
      "gasUsed": null,
      "fee": null,
      "origin": "{\"url\":\"https://ipfs.io/ipfs/QmRb2VfPVYBrv6gi2zDywgVgTg3A19ZCRMqwL13Ez5f5AS\",\"name\":\"Balancer Exch\"}",
      "dataDecoded": {
         "method": "multiSend",
         "parameters": [
            {
               "name": "transactions",
               "type": "bytes",
               "value": "0x006810e776880c02933d47db1b9fc05908e5386b9600000000000000000000000000000000000000000000000000000000000000000000000000000000000000000000000000000000000000000000000000000044095ea7b30000000000000000000000003e66b66fd1d0b02fda6c811da9e0547970db2f21000000000000000000000000000000000000000000000002b5e3af16b1880000003e66b66fd1d0b02fda6c811da9e0547970db2f2100000000000000000000000000000000000000000000000000000000000000000000000000000000000000000000000000000000000000000000000000000284e2b3974600000000000000000000000000000000000000000000000000000000000000a00000000000000000000000006810e776880c02933d47db1b9fc05908e5386b960000000000000000000000007fc66500c84a76ad7e9c93437bfc5ac33e2ddae9000000000000000000000000000000000000000000000002b5e3af16b1880000000000000000000000000000000000000000000000000000c2aea5080be57489000000000000000000000000000000000000000000000000000000000000000100000000000000000000000000000000000000000000000000000000000000200000000000000000000000000000000000000000000000000000000000000002000000000000000000000000e42237f32708bd5c04d69cc77e1e36c8f911a0160000000000000000000000006810e776880c02933d47db1b9fc05908e5386b96000000000000000000000000c02aaa39b223fe8d0a0e5c4f27ead9083c756cc2000000000000000000000000000000000000000000000002b5e3af16b18800000000000000000000000000000000000000000000000000000000000000000000ffffffffffffffffffffffffffffffffffffffffffffffffffffffffffffffff0000000000000000000000007c90a3cd7ec80dd2f633ed562480abbeed3be546000000000000000000000000c02aaa39b223fe8d0a0e5c4f27ead9083c756cc20000000000000000000000007fc66500c84a76ad7e9c93437bfc5ac33e2ddae90000000000000000000000000000000000000000000000003920d95bfbc38fea0000000000000000000000000000000000000000000000000000000000000000ffffffffffffffffffffffffffffffffffffffffffffffffffffffffffffffff",
               "valueDecoded": [
                  {
                     "operation": 0,
                     "to": "0x6810e776880C02933D47DB1b9fc05908e5386b96",
                     "value": "0",
                     "data": "0x095ea7b30000000000000000000000003e66b66fd1d0b02fda6c811da9e0547970db2f21000000000000000000000000000000000000000000000002b5e3af16b1880000",
                     "dataDecoded": {
                        "method": "approve",
                        "parameters": [
                           {
                              "name": "spender",
                              "type": "address",
                              "value": "0x3E66B66Fd1d0b02fDa6C811Da9E0547970DB2f21"
                           },
                           {
                              "name": "value",
                              "type": "uint256",
                              "value": "50000000000000000000"
                           }
                        ]
                     }
                  },
                  {
                     "operation": 0,
                     "to": "0x3E66B66Fd1d0b02fDa6C811Da9E0547970DB2f21",
                     "value": "0",
                     "data": "0xe2b3974600000000000000000000000000000000000000000000000000000000000000a00000000000000000000000006810e776880c02933d47db1b9fc05908e5386b960000000000000000000000007fc66500c84a76ad7e9c93437bfc5ac33e2ddae9000000000000000000000000000000000000000000000002b5e3af16b1880000000000000000000000000000000000000000000000000000c2aea5080be57489000000000000000000000000000000000000000000000000000000000000000100000000000000000000000000000000000000000000000000000000000000200000000000000000000000000000000000000000000000000000000000000002000000000000000000000000e42237f32708bd5c04d69cc77e1e36c8f911a0160000000000000000000000006810e776880c02933d47db1b9fc05908e5386b96000000000000000000000000c02aaa39b223fe8d0a0e5c4f27ead9083c756cc2000000000000000000000000000000000000000000000002b5e3af16b18800000000000000000000000000000000000000000000000000000000000000000000ffffffffffffffffffffffffffffffffffffffffffffffffffffffffffffffff0000000000000000000000007c90a3cd7ec80dd2f633ed562480abbeed3be546000000000000000000000000c02aaa39b223fe8d0a0e5c4f27ead9083c756cc20000000000000000000000007fc66500c84a76ad7e9c93437bfc5ac33e2ddae90000000000000000000000000000000000000000000000003920d95bfbc38fea0000000000000000000000000000000000000000000000000000000000000000ffffffffffffffffffffffffffffffffffffffffffffffffffffffffffffffff",
                     "dataDecoded": {
                        "method": "multihopBatchSwapExactIn",
                        "parameters": [
                           {
                              "name": "swapSequences",
                              "type": "(address,address,address,uint256,uint256,uint256)[][]",
                              "value": [
                                 [
                                    [
                                       "0xE42237F32708BD5C04D69cC77E1E36C8F911A016",
                                       "0x6810e776880C02933D47DB1b9fc05908e5386b96",
                                       "0xC02aaA39b223FE8D0A0e5C4F27eAD9083C756Cc2",
                                       "50000000000000000000",
                                       "0",
                                       "115792089237316195423570985008687907853269984665640564039457584007913129639935"
                                    ],
                                    [
                                       "0x7c90a3cd7Ec80dd2F633ed562480AbbEEd3bE546",
                                       "0xC02aaA39b223FE8D0A0e5C4F27eAD9083C756Cc2",
                                       "0x7Fc66500c84A76Ad7e9c93437bFc5Ac33E2DDaE9",
                                       "4116529048505782250",
                                       "0",
                                       "115792089237316195423570985008687907853269984665640564039457584007913129639935"
                                    ]
                                 ]
                              ]
                           },
                           {
                              "name": "tokenIn",
                              "type": "address",
                              "value": "0x6810e776880C02933D47DB1b9fc05908e5386b96"
                           },
                           {
                              "name": "tokenOut",
                              "type": "address",
                              "value": "0x7Fc66500c84A76Ad7e9c93437bFc5Ac33E2DDaE9"
                           },
                           {
                              "name": "totalAmountIn",
                              "type": "uint256",
                              "value": "50000000000000000000"
                           },
                           {
                              "name": "minTotalAmountOut",
                              "type": "uint256",
                              "value": "14028331343283582089"
                           }
                        ]
                     }
                  }
               ]
            }
         ]
      },
      "confirmationsRequired": null,
      "confirmations": [
         {
            "owner": "0x8712128BEA09C9687Df05A5D692F3750F8086C81",
            "submissionDate": "2021-02-08T16:25:38.041135Z",
            "transactionHash": null,
            "signature": "0xeab30e5d692c0b376bd315945dd54a4bd9c885077911f9d2d0cb6e54225bb1593d026790e82cf3a46b079a74c86768263f0647201c004de5e4a7d0177905d30c1b",
            "signatureType": "EOA"
         }
      ],
      "signatures": null
   }
}